:03000000020A965B
:0C0A9600787FE4F6D8FD75814C020ADD83
:1000030020414C4C20425245415448003E4E4958F1
:100013004945205455424500204C45445300204D4A
:100023005553494300204E495849452054554245AC
:10003300003E4C454453000003050911FF11890597
:10004300C300E000F000F8000000000000004428B6
:10005300FF11AA440000000000000000000000009F
:10006300000000000000000000000000000000008D
:10007300000000000000000000000000000000007D
:10008300000000000000000000000000000000006D
:1000930000830138448292927401830000000000BF
:1000A30000007C44FF017D7D7D017D7D7D7D017DA3
:1000B3007D7D7D7D01FF0000000000000100010047
:1000C3000100010001000100000000000000000029
:1000D300010100000000000000000000000000001B
:1000E300000000000000000000000000000000000D
:1000F30000000000000000000000000000000000FD
:1001030000000000000000000000000000000000EC
:1001130000010100000000000001010000000000D8
:1001230000000000010101010101010101010101C0
:1001330001010101010100000000000000000000B6
:1001430000000000000000000000000000000000AC
:100153000000003F3F0303F31311111111111101AB
:10016300F1116181010101816111F101010101417C
:1001730041F10101010101C1211111111121C1013C
:100183000101014141F101010101010101010101EC
:100193001111111111D33303033F3F00000000007D
:1001A300000000000000000000000000000000004C
:1001B300000000000000000000000000000000003C
:1001C300000000000000000000000000000000002C
:1001D300000000E0E000007F0101010101010000D7
:1001E3007F0000010618060100007F0000000040A8
:1001F300407F40400000001F2040404040201F003F
:1002030000000040407F404000000000600000000C
:100213000040300C0300000000E0E000000000009C
:1002230000000000000000000000000000000000CB
:1002330000000000000000000000000000000000BB
:1002430000000000000000000000000000000000AB
:100253000000000707060606060404048444444419
:10026300840404844444448404040484C4040404CB
:1002730004844444448404040404048444444484BB
:10028300040404040484444444840404844444442B
:1002930084040404040606060607070000000000A1
:1002A300000000000000000000000000000000004B
:1002B300000000000000000000000000000000003B
:1002C300000000000000000000000000000000002B
:1002D30000000000000000000000000010181412CD
:1002E3001100000F1010100F000000101F1000006D
:1002F30000081012120D00001800000D1212120D4A
:100303000000180000101814121100001018141225
:1003130011000000000000000000000000000000C9
:1003230000000000000000000000000000000000CA
:1003330000000000000000000000000000000000BA
:1003430000000000000000000000000000000000AA
:10035300000000000000000000000000000000009A
:10036300000000000000000000000000000000008A
:10037300000000808080808080808000000000007A
:10038300000000000000000000000000000000006A
:10039300000000000000000000000000000000005A
:1003A300000000000000000000000000000000004A
:1003B30000000000000000007F030C300C037F00EE
:1003C300003854545800007C04047800003C40403A
:1003D3007C0000000000000000000000000000009E
:1003E300000000000000000000000000000000000A
:1003F300000000FFAAAAAA280800FF0000000000CE
:1004030000000000000000000000000000000000E9
:1004130000000000000000000000000000000000D9
:100423007F030C300C037F0000264949493200004A
:100433007F020408107F0000030104FF0D37010051
:100443000208FF0D7600000000000000000000001D
:100453000000000000000000000000000000000099
:100463000000000000000000000000000000000089
:100473000000000000000000000000000000000079
:100483000000000000000000000000000000000069
:100493000000000000000000000000000000000059
:1004A3000000000000000000000000000000000049
:1004B3000000000000000000000000000000000039
:1004C3000000000000000000000000000000000029
:1004D3000000000000000000000000000000000019
:1004E3000000000000000000000000000000000009
:1004F30000000000000000000000000000000000F9
:09050300000000000000000000EF
:030E380001430073
:100D37007BFF7A00790375280CE4FDFF120CF37B27
:100D4700FF7A00790F75280C7D02E4FF120CF37B04
:100D5700FF7A00791B75280C7D04E4FF120CF37BE6
:0F0D6700FF7A00792175280C7D06E4FF020CF35A
:100D76007BFF7A00790375280CE4FDFF120CF37BE8
:100D8600FF7A00792875280C7D02E4FF120CF37BAC
:100D9600FF7A00793475280C7D04E4FF120CF37B8E
:0F0DA600FF7A00792175280C7D06E4FF020CF31B
:10087500120E59120CA67BFF7A00790375280CE439
:10088500FDFF120CF37BFF7A00792875280C7D0299
:10089500E4FF120CF37BFF7A00791B75280C7D04AD
:1008A500E4FF120CF37BFF7A00792175280C7D0695
:1008B500E4FF120CF330B10630B00320B2677F0AB3
:1008C5007E00120EAD20B11DE54375F007A4243B53
:1008D500F582E43404F583E493F54330B1FDAA458C
:1008E500A946120A9020B01DE54375F007A4243CE3
:1008F500F582E43404F583E493F54330B0FDAA456D
:10090500A946120A9020B21DE54375F007A4243DBF
:10091500F582E43404F583E493F54330B2FDAA454A
:10092500A946120A90E54375F007A4243EF582E432
:100935003404F583E493FB740193FA7402938B44B6
:070945008A45F5460208BADD
:10050C000000000000000000002F000000000700A9
:10051C00070000147F147F1400242A7F2A12006223
:10052C0064081323003649552250000005030000CF
:10053C0000001C224100000041221C000014083E57
:10054C0008140008083E0808000000A0600000081D
:10055C000808080800006060000000201008040271
:10056C00003E5149453E0000427F4000004261512F
:10057C004946002141454B31001814127F100027C9
:10058C0045454539003C4A4949300001710905038C
:10059C0000364949493600064949291E00003636BD
:1005AC000000000056360000000814224100001420
:1005BC0014141414000041221408000201510906FD
:1005CC0000324959513E007C1211127C007F49497E
:1005DC004936003E41414122007F4141221C007FAF
:1005EC0049494941007F09090901003E4149497ABD
:1005FC00007F0808087F0000417F41000020404137
:10060C003F01007F08142241007F40404040007FA2
:10061C00020C027F007F0408107F003E4141413EE6
:10062C00007F09090906003E4151215E007F09192E
:10063C0029460046494949310001017F0101003F2B
:10064C004040403F001F2040201F003F4038403FAB
:10065C00006314081463000708700807006151490F
:10066C00454300007F41410000552A552A550000A2
:10067C0041417F0000040201020400404040404020
:10068C00000001020400002054545478007F4844B8
:10069C00443800384444442000384444487F0038EF
:1006AC005454541800087E0901020018A4A4A47C18
:1006BC00007F080404780000447D400000408084E2
:1006CC007D00007F102844000000417F4000007C2A
:1006DC0004180478007C0804047800384444443836
:1006EC0000FC242424180018242418FC007C080482
:1006FC00040800485454542000043F444020003C5B
:10070C004040207C001C2040201C003C4030403CE1
:10071C00004428102844001CA0A0A07C0044645471
:10072C004C441414141414140000FE225A86088825
:10073C0048380FE808880C08000000000000000092
:10074C0000000000000000000000FF04080720115A
:10075C000D41817F010519300000000000000000F0
:10076C0000000000000000000040405C5454545451
:10077C007F545454D45E444000000000000000003C
:10078C000000000000000000000000809F4141219B
:10079C001D2121415F8100000000000000000000CD
:1007AC00000000000000000000808888888888888D
:1007BC00FF888888888CC88000000000000000003A
:1007CC00000000000000000000008080402018069F
:1007DC00010618202040C04000000000000000006E
:1007EC0000000000000000000000FC0404FE442097
:1007FC00504F4848C84C08000000000000000000A2
:10080C00000000000000000000001F08081F00305E
:10081C00484442414040407000000000000000008D
:10082C000000000000000000000000FE12125292B6
:10083C0012F212925212BF020000000000000000DF
:10084C0000000000000000000040300F41211109A1
:10085C0005FF0509112161210000000000000000C6
:09086C0000000000000000000083
:100E3B001B08AE001040B081FFA1A6A83FC8D3008D
:0D0E4B00D580D805D9F1DA12D8308D14AF5A
:090F0B00D2B0D290C290C2B02213
:070F1400D2B0C290D290227E
:0B0EDF00120DBC120EEAAF04120DBC95
:050EEA00D2B0C2B022ED
:070DB500AC07120F0B7F7861
:100DBC00C2B0E4FEEEC3940874809480501BAD075F
:100DCC00530580ED64807004D2908002C290EF25B0
:090DDC00E0FFD2B0C2B00E80DBD2
:010DE50022EB
:0E0EEF00120DB5120EEAE4FF120EDF020F1410
:0E0EFD00120DB5120EEA7F40120EDF020F1426
:100E1200F583E58229F582E43583F583E493FF7E49
:050E2200007D017C00D1
:100E2700AB07AA06ED4C6003020EFDAF03120EEFEF
:010E37002298
:100DE600A907ED24B0FFE433FEE4FDFC120E27E96B
:100DF60054F0C4540F7E004410FFE4FDFC120E278D
:0C0E0600E9540FFF7E00E4FDFC020E2703
:100E7700E4FDFC7F8DFE120E27E4FDFC7F14FE12BD
:0B0E87000E27E4FDFC7FAFFE020E27EB
:100E9200E4FDFC7F8DFE120E27E4FDFC7F10FE12A6
:0B0EA2000E27E4FDFC7FAEFE020E27D1
:100CA600E4F9E9FF7E00C3940874809480503DEF18
:100CB60024B0FFEE33FEE4FDFC120E27E4FDFCFF3C
:100CC600FE120E27E4FDFC7F10FE120E27E4F5232C
:100CD600C3E523948074809480500E7D017C00E4EB
:0C0CE600FFFE120E27052380E70980B6F0
:010CF20022DF
:100C5800E4F9E9FF7E00C3940874809480503EEF65
:100C680024B0FFEE33FEE4FDFC120E27E4FDFCFF8A
:100C7800FE120E27E4FDFC7F10FE120E27E4F54B52
:100C8800C3E54B948074809480500F7D017C007F75
:0D0C9800017E00120E27054B80E60980B595
:010CA500222C
:04094C008F2A8D2B36
:10095000E4F52EF9EB24E0F52ED3EF947F74809428
:10096000804007E4F52A052B052BE52D6410706403
:10097000AD2BAF2A120DE6E4F9E9C3940874809414
:1009800080501E75F010E52EA429F582E435F0F5AF
:1009900083E5822434F582E5833407120E1C098036
:1009A000D8E52B04FDAF2A120DE6E4F9E9C394085B
:1009B00074809480504575F010E52EA429F582E4EA
:1009C00035F0F583E582243CF582E5833407120E89
:1009D0001C0980D8AD2BAF2A120DE6E4F9E9C394C7
:1009E0000674809480501475F006E52EA4240CF54E
:0B09F00082E5F03405120E120980E2CF
:0109FB0022D9
:040EC7008F4CA9059E
:100ECB007F017E00AD0119ED6009AD4C7C00120A6B
:030EDB002980F17A
:010EDE0022F1
:080B22008F3A8D3B8A3C8B3DAC
:100B2A00E4F542F540E540C3953E5065C3E53E9580
:100B3A004014FD7F0A120EC7AC3CAD3DCFCDCFCEDF
:100B4A00CCCE120A3B7C007D0A120A3B8D41E5425B
:100B5A007023E53E14FFE540C39F5019E54170122A
:100B6A00E53FC3138540F0A4253AFF853F2D7B203E
:100B7A008016754201E53FC3138540F0A4253AFF6C
:100B8A00E5412430FB853F2DAD3B12094C054080E1
:010B9A0094C6
:010B9B002237
:0A0CF3008F238D248B258A26892784
:100CFD00E4F529AB25AA26A927852982758300123B
:100D0D0009FCFB602485282DAD24AF2312094C74FA
:100D1D00082523F523D39478748094804007E4F557
:090D2D002305240524052980CAD0
:010D3600229A
:060BFE008F478D488B4972
:100C0400E4F54A120DE6E4F9E9C394107480948083
:100C1400501675F040E549A42435F582E5F0340713
:100C2400120E12054A0980E0E54804FDAF47120D93
:100C3400E6E4F9E9C3941074809480501675F0408A
:100C4400E549A42455F582E5F03407120E12054A4D
:030C54000980E034
:010C5700227A
:040B9C008F2F8B31DB
:100BA000E4F536F537E5325407700BE532131313CD
:100BB000541FF539800AE532131313541F04F53915
:100BC0008D39E539C395325034AD39AF2F120DE66A
:100BD000852F38E538C39531501FAB33AA34A9357A
:100BE0000537E537AE367002053614F5828E83126E
:0D0BF00009FC120E20053880DA053980C599
:010BFD0022D5
:100E5900E4F9E9C3941B748094805011740829F84B
:0D0E6900E6FF7E00E4FDFC120E270980E587
:010E76002259
:100EAD00EF4E60157D087C07ED1DAA0470011C4AEC
:090EBD0070F6EF1F70EA1E80E7D9
:010EC6002209
:100AA200020875E493A3F8E493A34003F68001F2ED
:100AB20008DFF48029E493A3F85407240CC8C33355
:100AC200C4540F4420C8834004F456800146F6DF24
:100AD200E4800B0102040810204080900E38E47E6E
:100AE200019360BCA3FF543F30E509541FFEE49319
:100AF200A360010ECF54C025E060A840B8E493A3E0
:100B0200FAE493A3F8E493A3C8C582C8CAC583CA0A
:100B1200F0A3C8C582C8CAC583CADFE9DEE780BEC2
:010E58000099
:1009FC00BB010CE58229F582E5833AF583E02250B0
:100A0C0006E92582F8E622BBFE06E92582F8E222F9
:0D0A1C00E58229F582E5833AF583E4932213
:100A2900EF8DF0A4A8F0CF8CF0A428CE8DF0A42EE1
:020A3900FE229B
:100A3B00BC000BBE0029EF8DF084FFADF022E4CC9F
:100A4B00F875F008EF2FFFEE33FEEC33FCEE9DEC68
:100A5B00984005FCEE9DFE0FD5F0E9E4CEFD22EDAE
:100A6B00F8F5F0EE8420D21CFEADF075F008EF2FF8
:100A7B00FFED33FD4007985006D5F0F222C398FDE9
:050A8B000FD5F0EA2286
:060A90008A838982E473F1
:00000001FF
