:080FC40057454C434F4D450019
:0C06ED000154800155FF015980015AFFA3
:100F3D00438E0475D71D75D6FC438E1043AF042226
:10000300E4FF120E3E0551E551C395525013E553DB
:1000130024FF92CC929592CD92B3AF54120E658089
:1000230012AF55120E65E55324FFB392CC9295920D
:10003300CD92B3E55164C87004F5510552E552649D
:10004300C87017F552E55370047F0180027F008F5B
:0A00530053855456855554855655C3
:01005D002280
:100C4A000557E557C395585004AF598002AF5A1259
:100C5A000E65E55764C87004F5570558E55864C829
:0D0C6A00700BF55885595B855A59855B5A0A
:010C7700225A
:1008B900D2AF120EAF1207E97FFF120E657BFF7AE6
:1008C9000F79C47D037F24120878120F951207E966
:1008D9001208F7120F3D120526208C0312079BE51B
:0E08E90068640170F1E56970ED12000380E8AB
:030063000208345C
:10083400C0E0C0F0C083C082C0D075D000C000C08A
:1008440001C002C003C004C005C006C007E5696456
:10085400017003120C4A1203DDD007D006D005D074
:1008640004D003D002D001D000D0D0D082D083D025
:04087400F0D0E032AE
:100281000000000000000000002F00000000070037
:10029100070000147F147F1400242A7F2A120062B1
:1002A100640813230036495522500000050300005D
:1002B10000001C224100000041221C000014083EE5
:1002C10008140008083E0808000000A060000008AB
:1002D10008080808000060600000002010080402FF
:1002E100003E5149453E0000427F400000426151BD
:1002F1004946002141454B31001814127F10002757
:1003010045454539003C4A49493000017109050319
:1003110000364949493600064949291E000036364A
:1003210000000000563600000008142241000014AD
:10033100141414140000412214080002015109068A
:1003410000324959513E007C1211127C007F49490B
:100351004936003E41414122007F4141221C007F3C
:1003610049494941007F09090901003E4149497A4A
:10037100007F0808087F0000417F410000204041C4
:100381003F01007F08142241007F40404040007F30
:10039100020C027F007F0408107F003E4141413E74
:1003A100007F09090906003E4151215E007F0919BC
:1003B10029460046494949310001017F0101003FB9
:1003C1004040403F001F2040201F003F4038403F39
:0C03D1000063140814630007087008079C
:1006F9001B08AE001040B081FFA1A6A83FC8D300D7
:0D070900D580D805D9F1DA12D8308D14AFA3
:050EED0033FEE4FDFCF2
:100EF2008E658F66ED4C6003020F7AAF66120F6C3F
:010F020022CC
:100CA5008F64ED24B0FFE4120EEDE56454F0C454F6
:100CB5000F7E004410FFE4FDFC120EF2E564540FB4
:090CC500FF7E00E4FDFC020EF2CA
:1007E900E4F55CAF5C7E00C3EF940874809480509C
:1007F90039EF24B0FFEE120EEDE4FDFCFFFE120E00
:10080900F2E4FDFC7F10FE120EF2E4F55DC3E55D36
:10081900948074809480500E7D017C00E4FFFE1268
:0A0829000EF2055D80E7055C80B962
:0108330022A2
:10074600E4F562F563EB24E0F562EFD3947F748001
:1007560094804004E4FF0D0D120CA5E4F563C3E597
:1007660063940674809480502B75F006E562A42489
:1007760081F582E5F03402F583E5822563F582E4AE
:100786003583F583E493FF7E007D017C00120EF233
:04079600056380CAAD
:01079A00223C
:0A0878008F5C8D5D8B5E8A5F8960E6
:10088200E4F561AB5EAA5FA960856182758300129F
:100892000BB5FB6021AD5DAF5C1207467408255CA9
:1008A200F55CD39478748094804007E4F55C055D30
:0608B200055D056180CD2B
:0108B800221D
:100EAF00E4F55CC3E55C941B748094805013740864
:100EBF00255CF8E6FF7E00E4FDFC120EF2055C8077
:010ECF00E240
:010ED00022FF
:0C0F88007F027E437DB7DDFEDEFCDFFA59
:010F9400223A
:0C0F95007F7F7E127D6BDDFEDEFCDFFA4C
:010FA100222D
:100066003E5052415353003E4D454E55003E544F6F
:10007600003E434F4E54494E5545003E414C4C20A0
:1000860042524541544800204E495849452054554E
:10009600424500204C45445300204D5553494300EA
:1000A60020414C4C20425245415448003E4E49584E
:1000B60049452054554245003E4C454453003E4D6B
:1000C60055534943003E4F4E00204F4646002052AE
:1000D600455455524E00204F4E003E4F4646003E78
:1000E60052455455524E003E54494D455200204308
:1000F6004F554E54444F574E002054494D455200DB
:100106003E434F554E54444F574E003E4E454F4E7C
:10011600204C414D5000204348414E474520535006
:1001260045454400204E454F4E204C414D50003E23
:100136004348414E47452053504545440020564FBD
:100146004C2B0020564F4C2D003E564F4C2B003E5C
:10015600564F4C2D002020202020532B503D455833
:10016600495400204D2020202020205320202020EC
:10017600202050003E53504545442B002053504507
:1001860045442D002053504545442B003E535045D1
:1001960045442D0000000001FF08F701040205FF99
:1001A600092D02010308FF09630302040BFF0999E5
:1001B6000403010FFF09CF05070613FF0CCE060542
:1001C6000714FF0CF707060501FF0D20080A09159D
:1001D600FF0D4909080A16FF0C780A090802FF0DE7
:1001E600720B0E0C17FF0A050C0B0D18FF0A3B0DC0
:1001F6000C0E19FF0A710E0D0B03FF0AA70F121042
:100206001CFF0ADD100F111DFF0B131110121EFF2C
:100216000B4912110F04FF0B7F13070613FF0FDCA8
:1002260014050714FF0FA2150A0915FF0E8C1608F0
:100236000A16FF0FCC170E0C17FF0FE3180B0D183D
:10024600FF0FD4191B1A1FFF0D9B1A191B20FF0D38
:10025600C41B1A190DFF0DED1C12101CFF0F191DE2
:100266000F111DFF0F5D1E10121EFF0FAF1F1B1A71
:0B0276001FFF0F2C20191B20FF0F039F
:09071600016D00016B96016C05F8
:1008F7001207E97BFF7A007966E4FDFF1208787B2F
:10090700FF7A00796D7D02E4FF1208787BFF7A0099
:1009170079737D04E4FF1208787BFF7A0079777D8D
:0609270006E4FF0208785F
:10092D001207E97BFF7A007981E4FDFF1208787BDD
:10093D00FF7A00798D7D02E4FF1208787BFF7A0043
:10094D0079997D04E4FF1208787BFF7A00799F7D09
:06095D0006E4FF02087829
:100963001207E97BFF7A0079A6E4FDFF1208787B82
:10097300FF7A0079B27D02E4FF1208787BFF7A00E8
:1009830079997D04E4FF1208787BFF7A00799F7DD3
:0609930006E4FF020878F3
:100999001207E97BFF7A0079A6E4FDFF1208787B4C
:1009A900FF7A00798D7D02E4FF1208787BFF7A00D7
:1009B90079BE7D04E4FF1208787BFF7A00799F7D78
:0609C90006E4FF020878BD
:1009CF001207E97BFF7A0079A6E4FDFF1208787B16
:1009DF00FF7A00798D7D02E4FF1208787BFF7A00A1
:1009EF0079997D04E4FF1208787BFF7A0079C47D42
:0609FF0006E4FF02087887
:100CCE001207E97BFF7A0079CBE4FDFF1208787BEF
:100CDE00FF7A0079CF7D02E4FF1208787BFF7A005D
:090CEE0079D47D04E4FF020878CA
:100CF7001207E97BFF7A0079DCE4FDFF1208787BB5
:100D0700FF7A0079E07D02E4FF1208787BFF7A0022
:090D170079D47D04E4FF020878A0
:100D20001207E97BFF7A0079DCE4FDFF1208787B8B
:100D3000FF7A0079CF7D02E4FF1208787BFF7A000A
:090D400079E57D04E4FF02087866
:100D49001207E97BFF7A0079EDE4FDFF1208787B51
:100D5900FF7A0079F47D02E4FF1208787BFF7A00BC
:090D690079D47D04E4FF0208784E
:100C78001207E97BFF7A0079FFE4FDFF1208787B11
:100C8800FF7A0179067D02E4FF1208787BFF7A007B
:0D0C980079D47D04E4FF120878E4F56922A8
:100D72001207E97BFF7A0079FFE4FDFF1208787B16
:100D8200FF7A0079F47D02E4FF1208787BFF7A0093
:090D920079E57D04E4FF02087814
:100A05001207E97BFF7A017911E4FDFF1208787B73
:100A1500FF7A0079CF7D02E4FF1208787BFF7A0127
:100A2500791C7D04E4FF1208787BFF7A0079D47D78
:060A350006E4FF02087850
:100A3B001207E97BFF7A01792AE4FDFF1208787B24
:100A4B00FF7A0079E07D02E4FF1208787BFF7A01E0
:100A5B00791C7D04E4FF1208787BFF7A0079D47D42
:060A6B0006E4FF0208781A
:100A71001207E97BFF7A01792AE4FDFF1208787BEE
:100A8100FF7A0079CF7D02E4FF1208787BFF7A01BB
:100A910079357D04E4FF1208787BFF7A0079D47DF3
:060AA10006E4FF020878E4
:100AA7001207E97BFF7A01792AE4FDFF1208787BB8
:100AB700FF7A0079CF7D02E4FF1208787BFF7A0185
:100AC700791C7D04E4FF1208787BFF7A0079E57DC5
:060AD70006E4FF020878AE
:100ADD001207E97BFF7A0079C4E4FDFF1208787BE9
:100AED00FF7A0179437D02E4FF1208787BFF7A01DA
:100AFD0079497D04E4FF1208787BFF7A0079D47D73
:060B0D0006E4FF02087877
:100B13001207E97BFF7A00799FE4FDFF1208787BD7
:100B2300FF7A01794F7D02E4FF1208787BFF7A0197
:100B330079497D04E4FF1208787BFF7A0079D47D3C
:060B430006E4FF02087841
:100B49001207E97BFF7A00799FE4FDFF1208787BA1
:100B5900FF7A0179437D02E4FF1208787BFF7A016D
:100B690079557D04E4FF1208787BFF7A0079D47DFA
:060B790006E4FF0208780B
:100B7F001207E97BFF7A00799FE4FDFF1208787B6B
:100B8F00FF7A0179437D02E4FF1208787BFF7A0137
:100B9F0079497D04E4FF1208787BFF7A0079E57DBF
:060BAF0006E4FF020878D5
:070FDC00756801E4F56722CE
:0D0FA200E4F5687FFF120E3E7FFF020E6532
:100E8C001207E97BFF7A01795B7D03E4FF12087896
:100E9C007BFF7A0179697D06E4FF12087875690198
:030EAC00020675C6
:080FCC00E4F5697FFF020E65E8
:070FE300756A01E4F56822C4
:080FD400E4F56A7FFF020E65DF
:100D9B001207E97BFF7A01797AE4FDFF1208787B71
:100DAB00FF7A0179827D02E4FF1208787BFF7A00DB
:090DBB0079D47D04E4FF020878FC
:100DC4001207E97BFF7A01798AE4FDFF1208787B38
:100DD400FF7A0179927D02E4FF1208787BFF7A00A2
:090DE40079D47D04E4FF020878D3
:100DED001207E97BFF7A01798AE4FDFF1208787B0F
:100DFD00FF7A0179827D02E4FF1208787BFF7A0089
:090E0D0079E57D04E4FF02087898
:100F2C0030B2FD74F6256BF56B64327003756B3261
:010F3C002292
:100F030030B2FD740A256BF56BFF7E00BE0106BF90
:060F1300F403756BF422EB
:100F1900E4F56830B2FDE56770047F0180027F0067
:030F29008F6722AD
:0F0F5D0030B2FD056CE56C64147003756C1422E2
:0C0FAF0030B2FD156CE56C7002F56C2290
:1005260030B00930B10630B2030205E8120F882058
:10053600B036E56D75F007A4249BF582E43401F529
:1005460083E493F56D75F007A4249EF582E43401E7
:10055600F583E4740193FA740293F9120BE230B056
:10056600FDAA6FA970120BE220B13AE56D75F0078E
:10057600A4249CF582E43401F583E493F56D75F0CB
:1005860007A4249EF582E43401F583E493FB740109
:1005960093FA7402938B6E8A6FF57030B1FDAA6F71
:1005A600A970120BE220B23AE56D75F007A4249DFE
:1005B600F582E43401F583E493F56D75F007A42420
:1005C6009EF582E43401F583E493FB740193FA7497
:1005D60002938B6E8A6FF57030B2FDAA6FA9701206
:0305E6000BE22203
:090FBB00D2B0D290C290C2B02263
:070FEA00D2B0C290D29022A8
:0B0F4D00120BEF120F58AF04120BEF55
:050F5800D2B0C2B0227E
:070BE800AC07120FBB7F7880
:100BEF00C2B0E4FEEEC3940874809480501BAD072E
:100BFF00530580ED64807004D2908002C290EF257F
:090C0F00E0FFD2B0C2B00E80DBA0
:010C180022B9
:0E0F6C00120BE8120F58E4FF120F4D020FEAAD
:0E0F7A00120BE8120F587F40120F4D020FEAC3
:10071F00143B14D74C4587252457040510D3484163
:06072F00832120530001AC
:100E3E00E4FEEEC39408748094805016EFC413132E
:100E4E0013540124FF9291EF25E0FFC2B6D2B60EE5
:060E5E0080E0C2B7D2B72C
:010E6400226B
:100C190075F00A8475F00A84743B25F0F8E6FF1232
:040C29000E3E7F01FB
:100C2D00E4FE538E7F5389F0F58A758CE5D28CEEF8
:0C0C3D00C39F5008308DF8C28D0E80F36C
:010C49002288
:10079B00C2CCD295D2CDD2B3E550120C1D7FFF1235
:1007AB000E3ED2CCC295D2CDD2B3E550120C197FEE
:1007BB00FF120E3ED2CCD295C2CDD2B3E54F75F01F
:1007CB000A847445120C237FFF120E3ED2CCD295B5
:0E07DB00D2CDC2B3E54F120C197FFF020E3EC5
:100E1600E4FD538E7F5389F0F58A758CE512079BA6
:100E2600D28CEDC3945074809480500B308DF3C2F5
:070E36008D12079B0D80EBFC
:010E3D002292
:100675000550D3E550943B748094804005054FE4C4
:10068500F550D3E54F943B748094804003E4F54FD7
:10069500120E1620B10330B24E20B2D430B2FDE5B1
:1006A5006964017003756902C28C12079B20B0133F
:1006B50030B0FD054FD3E54F943B748094804003E3
:1006C500E4F54F20B11330B1FD0550D3E54F943B10
:1006D500748094804003E4F55020B2CEE56964024D
:0806E500708E75690180892205
:100ED100D4D4BED49FA9D4D4BED48E9FD4D46A6AAC
:0C0EE1007E9FA9BE7777777E9F8E9F00D2
:100735000734FDF9FBFAFEFCFD052F4020100840AB
:100E6500E4FEEEC39408748094805016EFC4131307
:100E750013540124FF9294EF25E0FFC293D2930E01
:060E850080E0C292D2924F
:010E8B002244
:1003DD00AF677E00EF64017018E56A640170120565
:1003ED0024E524700205230528E528702A052780B9
:1003FD0026EF64014E700EE56A700A0528E5287037
:10040D001605278012E567700EE56A640170080510
:10041D0024E52470020523E56764016009E56A643B
:10042D000160030204D3C3E528956CE527940050C1
:10043D0005752B808003E4F52BE52C900ED193658B
:10044D00287002E527701AF527F528052DE52D648E
:10045D0046700EF52D052C052EE52C641B7002F54E
:10046D002CC3E5249526E5239525500B7430252ABC
:10047D00F8E6FF74358009742F252AF8E6FF7434E9
:10048D002529F8E6C39FC3952BFF120E65AF6B7E32
:10049D0000EFB52410EEB5230CF523F5240526E564
:1004AD002670020525EFB5260DEEB52509E4F525D7
:1004BD00F5260529052AE52964067002F529E52AA0
:1004CD0064047002F52AE5676401704CE56A7048B2
:1004DD00E52E64057007752E01FF120E3EAF2E7EC0
:1004ED0000EF64017008C2B3D2CDD295D2CCEF64C7
:1004FD00024E7008D2B3C2CDD295D2CCEF64034E6A
:10050D007008D2B3D2CDC295D2CCEF64044E700830
:08051D00D2B3D2CDD295C2CCBD
:0105250022B3
:030000000205E90D
:0C05E900787FE4F6D8FD758170020630C2
:100BB500BB010CE58229F582E5833AF583E02250F5
:100BC50006E92582F8E622BBFE06E92582F8E2223F
:0D0BD500E58229F582E5833AF583E4932259
:060BE2008A838982E4739E
:1005F5000208B9E493A3F8E493A34003F68001F25B
:1006050008DFF48029E493A3F85407240CC8C33306
:10061500C4540F4420C8834004F456800146F6DFD5
:10062500E4800B01020408102040809006EDE47E72
:10063500019360BCA3FF543F30E509541FFEE493CA
:10064500A360010ECF54C025E060A840B8E493A391
:10065500FAE493A3F8E493A3C8C582C8CAC583CABC
:10066500F0A3C8C582C8CAC583CADFE9DEE780BE74
:0107450000B3
:00000001FF
