:1005200012081D1206EBC2AF12089AD2AF7F9412C6
:1005300008738E238F24AC23AD24E41201AEE4FBB8
:10054000FA79A07840120003E4FBFA79807845122A
:10055000010C8F288E278D268C25E4FFFE7D7A7C6A
:1005600044AB28AA27A926A8251200031201E78E6A
:10057000238F247C037DE8120295EF2430F529AE09
:1005800023AF247C007D641202957C007D0A120258
:1005900095ED2430F52AAE23AF247C007D0A1202AB
:1005A000957C007D641202957E007F0ACFCDCFCE70
:1005B000CCCE120295ED2430F52BAE23AF247C0374
:1005C0007DE81202957E007F64CFCDCFCECCCE12D7
:1005D00002957E007F0ACFCDCFCECCCE120295ED14
:1005E0002430F52C7B007A007929E4FDFF120736D0
:1005F000E4FF1208878F2E1208E87B007A00792921
:0A0600007D03E4FF12073602052D0A
:1007F800C2B6E4FEEEC39408748094805016EFC429
:10080800131313540124FF92B4EF25E0FFD2B6C2AC
:04081800B60E80E0B8
:01081C0022B9
:1007D100C2B6E4FBEBC3940C748094805014ED25F5
:1007E100E0FDEC33FCD2B6C2B6A2B7E43342050B4E
:0607F10080E2AF05AE043A
:0107F70022DF
:10087300E4F52FC2B5C2B61207F8C2B6D2B6120754
:03088300D1D2B51A
:01088600224F
:0908D800D280D281C281C28022CB
:0708E100D280C281D2812206
:0B08AC0012077E1208B7AF0412077E8F
:0508B700D280C2802286
:07077700AC071208D87F78DF
:10077E00C280E4FEEEC3940874809480501BAD07D3
:10078E00530580ED64807004D2818002C281EF2512
:09079E00E0FFD280C2800E80DB76
:0107A700222F
:0E08BC001207771208B7E4FF1208AC0208E139
:0E08CA001207771208B77F401208AC0208E14F
:1002F8000000000000000000002F000000000700C0
:10030800070000147F147F1400242A7F2A12006239
:1003180064081323003649552250000005030000E5
:1003280000001C224100000041221C000014083E6D
:1003380008140008083E0808000000A06000000833
:100348000808080800006060000000201008040287
:10035800003E5149453E0000427F40000042615145
:100368004946002141454B31001814127F100027DF
:1003780045454539003C4A494930000171090503A2
:1003880000364949493600064949291E00003636D3
:100398000000000056360000000814224100001436
:1003A8001414141400004122140800020151090613
:1003B80000324959513E007C1211127C007F494994
:1003C8004936003E41414122007F4141221C007FC5
:1003D80049494941007F09090901003E4149497AD3
:1003E800007F0808087F0000417F4100002040414D
:1003F8003F01007F08142241007F40404040007FB9
:10040800020C027F007F0408107F003E4141413EFC
:10041800007F09090906003E4151215E007F091944
:1004280029460046494949310001017F0101003F41
:100438004040403F001F2040201F003F4038403FC1
:100448000063140814630007087008070061514925
:10045800454300007F41410000552A552A550000B8
:1004680041417F0000040201020400404040404036
:10047800000001020400002054545478007F4844CE
:10048800443800384444442000384444487F003805
:100498005454541800087E0901020018A4A4A47C2E
:1004A800007F080404780000447D400000408084F8
:1004B8007D00007F102844000000417F4000007C40
:1004C80004180478007C080404780038444444384C
:1004D80000FC242424180018242418FC007C080498
:1004E800040800485454542000043F444020003C71
:1004F8004040207C001C2040201C003C4030403CF8
:10050800004428102844001CA0A0A07C0044645487
:080518004C44141414141414D3
:10083F001B08AE001040B081FFA1A6A83FC8D3008F
:0D084F00D580D805D9F1DA12D8308D14AF5C
:05085D0033FEE4FDFC88
:100862008E388F39ED4C60030208CAAF391208BCCA
:010872002263
:1007A8008F37ED24B0FFE412085DE53754F0C454E8
:1007B8000F7E004410FFE4FDFC120862E537540F79
:0907C800FF7E00E4FDFC02086262
:1006EB00E4F52FAF2F7E00C3EF94087480948050F5
:1006FB0039EF24B0FFEE12085DE4FDFCFFFE12089B
:10070B0062E4FDFC7F10FE120862E4F530C3E530B5
:10071B00948074809480500E7D017C00E4FFFE1267
:0A072B000862053080E7052F80B951
:0107350022A1
:10069600E4F535F536EB24E0F535EFD3947F748039
:1006A60094804004E4FF0D0D1207A8E4F536C3E577
:1006B60036940674809480502B75F006E535A42494
:1006C600F8F582E5F03402F583E5822536F582E415
:1006D6003583F583E493FF7E007D017C001208627A
:0406E600053680CA8B
:0106EA0022ED
:0A0736008F2F8D308B318A3289330A
:10074000E4F534AB31AA32A93385348275830012C3
:100750000268FB6021AD30AF2F1206967408252F7A
:10076000F52FD39478748094804007E4F52F0530FA
:060770000530053480CDC8
:010776002260
:10081D00E4F52FC3E52F941B748094805013740856
:10082D00252FF8E6FF7E00E4FDFC120862052F80FF
:01083D00E2D8
:01083E002297
:0408E8007F2BDFFE85
:0108EC0022E9
:10089A00759170759270759070E4F5BD75BC8002A3
:0208AA0008E85C
:10088700EF4488F5BC1208E8E5BC30E4FB53BCEF45
:03089700AFBD22D0
:10000300EC4D6011E8497017ED33EC3304600DE4F7
:10001300FCFFFEFD22E933E8330470F802025312B9
:10002300021E58046009E4CC2481500628500902BA
:10003300025D28400302025AC0E0EB4A7044B980D3
:1000430006D0E0FB020249EF4E701CBD8008EBFFB7
:10005300EAFEE9FD80EBE98DF0A4FEE5F00200EC99
:10006300E9CDF9EAFEEBFFEF89F0A4FCE5F0CE89D8
:10007300F0A42EFFE435F0CD89F0A42DFEE435F095
:100083008067EF4E7005BD80D780C3EF8BF0A4ACC3
:10009300F0EE8BF0A42CFCE435F0F8EF8AF0A42CFE
:1000A300E5F038FCE433CB8DF0A42CFCE5F03BF811
:1000B300EE8AF0A42CFCE5F038F8E433CF89F0A401
:1000C3002CFCE5F038CF3400CE89F0A42FFFE5F007
:1000D3003EFEE433C98DF0A42EFEE5F039CD8AF05F
:1000E300A42FFFE5F03EFEE43DFD33D0E0FB5007D7
:1000F3000BBB000F02025DEC2CFCEF33FFEE33FE73
:06010300ED33FD020235A0
:1001090002025DEC5D046005E859047003020253C4
:1001190012021E580460F6EC4860F2EC7004FDFE11
:10012900FF22C860DB2481C85009C39860025006C9
:1001390002025A9850CAF582E9294B4A7005AB82E6
:1001490002024975F0007C1A7880C3EF9BEE9AEDA4
:1001590099400DC3EF9BFFEE9AFEED99FDE842F041
:10016900DC23ACF0D0E0FFD0E0FED0E0FDAB822094
:10017900E7101BEB60BAEC2CFCEF33FFEE33FEED1E
:1001890033FD020235E803F830E705C0F075F000E9
:10019900EF2FFFEE33FEED33FD40B830E7C280AA02
:1001A90075F020800E75F010800575F0087D007ED1
:1001B900007F003392D530D5031202EAEC334010A8
:1001C900EF33FFEE33FEED33FDEC33FCD5F0ED22DA
:0E01D900E5F0247EA2D513CC92E7CDCEFF2216
:1001E700EDD2E7CD33EC3392D524814006E4FFFE10
:1001F700FDFC22FCE4CFCECDCC24E0501174FF806F
:10020700EDC3CC13CCCD13CDCE13CECF13CF04700B
:07021700F030D5DE0202EA1F
:10021E00E9D2E7C933E833F892D5EDD2E7CD33EC26
:07022E0033FC5002B2D5229F
:10023500EC30E7100FBF000C0EBE00080DBD00042A
:100245000BEB6014A2D5EB13FCED92E7FD2274FFD6
:10025500FCFDFEFF22E480F8A2D574FF13FC7D802F
:03026500E480EF43
:0300000002060AEB
:0C060A00787FE4F6D8FD758139020651B6
:10026800BB010CE58229F582E5833AF583E022504B
:1002780006E92582F8E622BBFE06E92582F8E22295
:0D028800E58229F582E5833AF583E49322AF
:10029500BC000BBE0029EF8DF084FFADF022E4CC4D
:1002A500F875F008EF2FFFEE33FEEC33FCEE9DEC16
:1002B500984005FCEE9DFE0FD5F0E9E4CEFD22ED5C
:1002C500F8F5F0EE8420D21CFEADF075F008EF2FA6
:1002D500FFED33FD4007985006D5F0F222C398FD97
:0502E5000FD5F0EA2234
:0E02EA00C3E49FFFE49EFEE49DFDE49CFC2225
:10061600020520E493A3F8E493A34003F68001F2D5
:1006260008DFF48029E493A3F85407240CC8C333E5
:10063600C4540F4420C8834004F456800146F6DFB4
:10064600E4800B010204081020408090083FE47EFD
:10065600019360BCA3FF543F30E509541FFEE493A9
:10066600A360010ECF54C025E060A840B8E493A370
:10067600FAE493A3F8E493A3C8C582C8CAC583CA9B
:10068600F0A3C8C582C8CAC583CADFE9DEE780BE53
:01085C00009B
:00000001FF
