:100520001207BB1206D5C2AF120811D2AF7F061256
:1005300008217523008F24AC23AD24E41201AEE41E
:10054000FBFA79A07840120003E4FBFA7980784343
:1005500012010C8F288E278D268C25E4FFFE7D7AD4
:100560007C44AB28AA27A926A8251200031201E77C
:100570008E238F247C037DE8120295EF2430F52929
:10058000AE23AF247C007D641202957C007D0A12AC
:100590000295ED2430F52AAE23AF247C007D0A12AB
:1005A00002957C007D641202957E007F0ACFCDCF3C
:1005B000CECCCE120295ED2430F52BAE23AF247CA9
:1005C000037DE81202957E007F64CFCDCFCECCCEE6
:1005D0001202957E007F0ACFCDCFCECCCE120295EF
:1005E000ED2430F52C7B007A007929E4FDFF120719
:0405F0002002052DB3
:10081100759170759270759070E4F5BD75BC80220C
:10082100EF4488F5BCE5BC30E4FB53BCEFAFBD221F
:1002F8000000000000000000002F000000000700C0
:10030800070000147F147F1400242A7F2A12006239
:1003180064081323003649552250000005030000E5
:1003280000001C224100000041221C000014083E6D
:1003380008140008083E0808000000A06000000833
:100348000808080800006060000000201008040287
:10035800003E5149453E0000427F40000042615145
:100368004946002141454B31001814127F100027DF
:1003780045454539003C4A494930000171090503A2
:1003880000364949493600064949291E00003636D3
:100398000000000056360000000814224100001436
:1003A8001414141400004122140800020151090613
:1003B80000324959513E007C1211127C007F494994
:1003C8004936003E41414122007F4141221C007FC5
:1003D80049494941007F09090901003E4149497AD3
:1003E800007F0808087F0000417F4100002040414D
:1003F8003F01007F08142241007F40404040007FB9
:10040800020C027F007F0408107F003E4141413EFC
:10041800007F09090906003E4151215E007F091944
:1004280029460046494949310001017F0101003F41
:100438004040403F001F2040201F003F4038403FC1
:100448000063140814630007087008070061514925
:10045800454300007F41410000552A552A550000B8
:1004680041417F0000040201020400404040404036
:10047800000001020400002054545478007F4844CE
:10048800443800384444442000384444487F003805
:100498005454541800087E0901020018A4A4A47C2E
:1004A800007F080404780000447D400000408084F8
:1004B8007D00007F102844000000417F4000007C40
:1004C80004180478007C080404780038444444384C
:1004D80000FC242424180018242418FC007C080498
:1004E800040800485454542000043F444020003C71
:1004F8004040207C001C2040201C003C4030403CF8
:10050800004428102844001CA0A0A07C0044645487
:080518004C44141414141414D3
:1007DD001B08AE001040B081FFA1A6A83FC8D300F2
:0D07ED00D580D805D9F1DA12D8308D14AFBF
:0507FB0033FEE4FDFCEB
:100800008E388F39ED4C600302084FAF3912084122
:0108100022C5
:100792008F37ED24B0FFE41207FBE53754F0C45461
:1007A2000F7E004410FFE4FDFC120800E537540FF1
:0907B200FF7E00E4FDFC020800DA
:1006D500E4F52FAF2F7E00C3EF940874809480500B
:1006E50039EF24B0FFEE1207FBE4FDFCFFFE120814
:1006F50000E4FDFC7F10FE120800E4F530C3E53090
:10070500948074809480500E7D017C00E4FFFE127D
:0A0715000800053080E7052F80B9C9
:01071F0022B7
:10068000E4F535F536EB24E0F535EFD3947F74804F
:1006900094804004E4FF0D0D120792E4F536C3E5A3
:1006A00036940674809480502B75F006E535A424AA
:1006B000F8F582E5F03402F583E5822536F582E42B
:1006C0003583F583E493FF7E007D017C00120800F2
:0406D000053680CAA1
:0106D4002203
:0A0720008F2F8D308B318A32893320
:10072A00E4F534AB31AA32A93385348275830012D9
:10073A000268FB6021AD30AF2F1206807408252FA6
:10074A00F52FD39478748094804007E4F52F053010
:06075A000530053480CDDE
:010760002276
:1007BB00E4F52FC3E52F941B7480948050137408B9
:1007CB00252FF8E6FF7E00E4FDFC120800052F80C4
:0107DB00E23B
:0107DC0022FA
:09085D00D280D281C281C2802246
:07086600D280C281D2812281
:0B08310012076812083CAF04120768B1
:05083C00D280C2802201
:07076100AC0712085D7F7870
:10076800C280E4FEEEC3940874809480501BAD07E9
:10077800530580ED64807004D2818002C281EF2528
:09078800E0FFD280C2800E80DB8C
:010791002245
:0E08410012076112083CE4FF1208310208663B
:0E084F0012076112083C7F4012083102086651
:10000300EC4D6011E8497017ED33EC3304600DE4F7
:10001300FCFFFEFD22E933E8330470F802025312B9
:10002300021E58046009E4CC2481500628500902BA
:10003300025D28400302025AC0E0EB4A7044B980D3
:1000430006D0E0FB020249EF4E701CBD8008EBFFB7
:10005300EAFEE9FD80EBE98DF0A4FEE5F00200EC99
:10006300E9CDF9EAFEEBFFEF89F0A4FCE5F0CE89D8
:10007300F0A42EFFE435F0CD89F0A42DFEE435F095
:100083008067EF4E7005BD80D780C3EF8BF0A4ACC3
:10009300F0EE8BF0A42CFCE435F0F8EF8AF0A42CFE
:1000A300E5F038FCE433CB8DF0A42CFCE5F03BF811
:1000B300EE8AF0A42CFCE5F038F8E433CF89F0A401
:1000C3002CFCE5F038CF3400CE89F0A42FFFE5F007
:1000D3003EFEE433C98DF0A42EFEE5F039CD8AF05F
:1000E300A42FFFE5F03EFEE43DFD33D0E0FB5007D7
:1000F3000BBB000F02025DEC2CFCEF33FFEE33FE73
:06010300ED33FD020235A0
:1001090002025DEC5D046005E859047003020253C4
:1001190012021E580460F6EC4860F2EC7004FDFE11
:10012900FF22C860DB2481C85009C39860025006C9
:1001390002025A9850CAF582E9294B4A7005AB82E6
:1001490002024975F0007C1A7880C3EF9BEE9AEDA4
:1001590099400DC3EF9BFFEE9AFEED99FDE842F041
:10016900DC23ACF0D0E0FFD0E0FED0E0FDAB822094
:10017900E7101BEB60BAEC2CFCEF33FFEE33FEED1E
:1001890033FD020235E803F830E705C0F075F000E9
:10019900EF2FFFEE33FEED33FD40B830E7C280AA02
:1001A90075F020800E75F010800575F0087D007ED1
:1001B900007F003392D530D5031202EAEC334010A8
:1001C900EF33FFEE33FEED33FDEC33FCD5F0ED22DA
:0E01D900E5F0247EA2D513CC92E7CDCEFF2216
:1001E700EDD2E7CD33EC3392D524814006E4FFFE10
:1001F700FDFC22FCE4CFCECDCC24E0501174FF806F
:10020700EDC3CC13CCCD13CDCE13CECF13CF04700B
:07021700F030D5DE0202EA1F
:10021E00E9D2E7C933E833F892D5EDD2E7CD33EC26
:07022E0033FC5002B2D5229F
:10023500EC30E7100FBF000C0EBE00080DBD00042A
:100245000BEB6014A2D5EB13FCED92E7FD2274FFD6
:10025500FCFDFEFF22E480F8A2D574FF13FC7D802F
:03026500E480EF43
:030000000205F402
:0C05F400787FE4F6D8FD75813902063BE3
:10026800BB010CE58229F582E5833AF583E022504B
:1002780006E92582F8E622BBFE06E92582F8E22295
:0D028800E58229F582E5833AF583E49322AF
:10029500BC000BBE0029EF8DF084FFADF022E4CC4D
:1002A500F875F008EF2FFFEE33FEEC33FCEE9DEC16
:1002B500984005FCEE9DFE0FD5F0E9E4CEFD22ED5C
:1002C500F8F5F0EE8420D21CFEADF075F008EF2FA6
:1002D500FFED33FD4007985006D5F0F222C398FD97
:0502E5000FD5F0EA2234
:0E02EA00C3E49FFFE49EFEE49DFDE49CFC2225
:10060000020520E493A3F8E493A34003F68001F2EB
:1006100008DFF48029E493A3F85407240CC8C333FB
:10062000C4540F4420C8834004F456800146F6DFCA
:10063000E4800B01020408102040809007DDE47E76
:10064000019360BCA3FF543F30E509541FFEE493BF
:10065000A360010ECF54C025E060A840B8E493A386
:10066000FAE493A3F8E493A3C8C582C8CAC583CAB1
:10067000F0A3C8C582C8CAC583CADFE9DEE780BE69
:0107FA0000FE
:00000001FF
