:030000000208965D
:0C089600787FE4F6D8FD7581230208DDB0
:10092200E4F519F51AE4FF1209928F1AEF640170C7
:1009320008AD19FF120AAE802BE51A64027008FF97
:10094200120A518F19801DAF1A7E00EF6403700CDA
:100952000519E519F4700D7519FF8008EF64044E4E
:100962007002F519E51975F06484F51BE51975F047
:100972006484AFF0EF75F00A84F51CEF75F00A8419
:1009820085F01D7B007A00791B7D06120800809598
:0F0B0D00D2A0D2A1120B58C2A0120B58C2A12223
:0C0B3A00C2A0D2A1120B58D2A0020B588E
:0F0B1C00C2A1C2A0120B58D2A1120B58C2A12223
:0F0B2B00C2A1D2A0120B58D2A1120B58C2A12204
:100AD300E4F520D2A1120B5830A0130520D3E52052
:100AE30094647480948040F0120B3A7F0122C2A177
:020AF3007F0082
:010AF50022DE
:020A16008F202F
:100A1800E4F521C2A1F521C3E521940874809480EE
:100A28005026E52054809400748094804004D2A01D
:100A38008002C2A0E52025E0F520D2A1120B58C201
:080A4800A1120B58052180CF1B
:010A50002283
:0209DA008F206C
:1009DC00E4F521F522F521C3E52194087480948077
:1009EC005019C2A1120B58D2A1120B58E52225E0C6
:1009FC00F52230A0020522052180DCE520700512CD
:090A0C000B2B8003120B1CAF221E
:010A150022BE
:100AF60011083F065B4F666D7D077F6F777C395E19
:030B060079710002
:060800008B1E8A1F8920F7
:10080600E4F521ED14F522F521C3E5219408748061
:100816009480507BE521B40800504D900828F828B4
:10082600287302084002084402084802084C0208DD
:1008360050020858020860020868D2A4800ED2A4AA
:100846008012D2A48016D2A4801AC2A4D2A3D2A2A5
:100856008016C2A4D2A3C2A2800EC2A4C2A3D2A2F0
:100866008006C2A4C2A3C2A2C3E5219522FFE494D6
:1008760000AB1EAA1FA9208F82F583120A812408C5
:0F088600F8E6F580120B4FE4F580052102080F0C
:010895002240
:030B0900012301C4
:10099200EF6003752301E5236401702A30B1093049
:1009A200B00630B20320B31E120B46E4F52320B189
:1009B200037F012220B0037F022220B2037F0322A1
:1009C20020B3127F042230B10C30B00930B20630AD
:0709D200B3037523017F0050
:0109D90022FB
:100AAE008F1E8D1F120B0D7FA0120A16120AD3AFC6
:100ABE001E120A16120AD3AF1F120A16120AD312E8
:050ACE000B3A020B468B
:020A51008F1EF6
:100A5300E4F51F120B0D7FA0120A16120AD3AF1E64
:100A6300120A16120AD3120B0D7FA1120A16120ACA
:0D0A7300D3E4FF1209DA8F1F120B3AAF1FF8
:010A80002253
:040B58007F02DFFE3B
:010B5C002276
:080B46007F127EEBDEFEDFFCF6
:010B4E002284
:080B4F007F027EC7DEFEDFFC21
:010B5700227B
:1008A200020922E493A3F8E493A34003F68001F241
:1008B20008DFF48029E493A3F85407240CC8C33357
:1008C200C4540F4420C8834004F456800146F6DF26
:1008D200E4800B0102040810204080900AF6E47EB6
:1008E200019360BCA3FF543F30E509541FFEE4931B
:1008F200A360010ECF54C025E060A840B8E493A3E2
:10090200FAE493A3F8E493A3C8C582C8CAC583CA0C
:10091200F0A3C8C582C8CAC583CADFE9DEE780BEC4
:010B0C0000E8
:100A8100BB010CE58229F582E5833AF583E022502A
:100A910006E92582F8E622BBFE06E92582F8E22274
:0D0AA100E58229F582E5833AF583E493228E
:00000001FF
