:070C68000518010101010163
:10081B0075BB70759620C2AF120C19D2AF1209F8C6
:10082B00120A81120ABA7B007A007918120B7B7FAD
:10083B0028120C53E5092404FF120C29741D2509F9
:10084B00F8A6077B007A00791D120BA7E509240493
:10085B00FF120C29EF75F064842430F50AE50924A6
:10086B0004FF120C29EF75F00A8475F00A84E5F089
:10087B002430F50BE5092404FF120C29EF75F06405
:10088B0084E5F075F00A84E5F02430F50CE50925D4
:10089B00E0FD7B007A00790AE4FF120A400509E5C6
:1008AB000970020508640445087089F508F509808C
:0108BB0083B9
:100BD300E4FEEEC3940874809480501BEF30E70466
:100BE300D2A28002C2A2EF25E0FFD2A1A2A3E433E6
:070BF3004207C2A10E80DBE6
:010BFA0022D8
:0D0C3900C2A7120BD3AF05120BD3D2A72216
:060B20008B148A158916F2
:100B2600C2A7120BD3E4FDEDC395175018AB1405FD
:100B360016E516AA157002051514F9120948FF12D2
:070B46000BD30D80E2D2A7E2
:010B4D002285
:0C0C4600C2A7120BD3E4FF120BD3D2A7FD
:010C5200227F
:060B4E008B288A29892A88
:100B5400C2A7120BD3E4FDEDC3952B5017E4FF128B
:100B64000BD3AB28AA29A92A8D82758300EF120919
:060B74008E0D80E3D2A704
:010B7A002258
:0C0C5300AD07C2C57F25120C39D2C522A6
:100ABA00C2A1D2A7C2C5D2A6C2C57D037F23120C8A
:100ACA00397D067F26120C397D017F21120C397F70
:100ADA0022120C397D067F31120C397D1F7F2412B8
:050AEA000C39D2C52209
:100B7B008B108A118912C2C57517057F30120B2095
:100B8B007D0E7F20120C39AB10AA11A91275170517
:0C0B9B007F2A120B207DFF7F27020C39FF
:100BA700C2C57517067FA0120B20D2C520A6FD7FF0
:100BB70007120C46AC07AD047F27120C39EC30E561
:0B0BC70002D3227DFF7FE1120C39C336
:010BD2002200
:100003000000000000000000002F000000000700B7
:10001300070000147F147F1400242A7F2A12006231
:1000230064081323003649552250000005030000DD
:1000330000001C224100000041221C000014083E65
:1000430008140008083E0808000000A0600000082B
:10005300080808080000606000000020100804027F
:10006300003E5149453E0000427F4000004261513D
:100073004946002141454B31001814127F100027D7
:1000830045454539003C4A4949300001710905039A
:1000930000364949493600064949291E00003636CB
:1000A300000000005636000000081422410000142E
:1000B300141414140000412214080002015109060B
:1000C30000324959513E007C1211127C007F49498C
:1000D3004936003E41414122007F4141221C007FBD
:1000E30049494941007F09090901003E4149497ACB
:1000F300007F0808087F0000417F41000020404145
:100103003F01007F08142241007F40404040007FB0
:10011300020C027F007F0408107F003E4141413EF4
:10012300007F09090906003E4151215E007F09193C
:1001330029460046494949310001017F0101003F39
:100143004040403F001F2040201F003F4038403FB9
:10015300006314081463000708700807006151491D
:10016300454300007F41410000552A552A550000B0
:1001730041417F000004020102040040404040402E
:10018300000001020400002054545478007F4844C6
:10019300443800384444442000384444487F0038FD
:1001A3005454541800087E0901020018A4A4A47C26
:1001B300007F080404780000447D400000408084F0
:1001C3007D00007F102844000000417F4000007C38
:1001D30004180478007C0804047800384444443844
:1001E30000FC242424180018242418FC007C080490
:1001F300040800485454542000043F444020003C69
:100203004040207C001C2040201C003C4030403CEF
:10021300004428102844001CA0A0A07C004464547F
:100223004C441414141414140000000000000000C3
:100233000000000000000000000000F800000000C3
:10024300000000333000000000100C06100C060004
:10025300000000000000000040C07840C07840006B
:10026300043F04043F040400007088FC08300000CD
:10027300001820FF211E0000F008F000E018000025
:1002830000211C031E211E0000F0088870000000DE
:100293001E2123241927211010160E000000000030
:1002A3000000000000000000000000E0180402004D
:1002B300000000071820400000020418E0000000BE
:1002C3000040201807000000404080F080404000BC
:1002D3000202010F01020200000000F00000000012
:1002E3000101011F010101000000000000000000E6
:1002F30080B070000000000000000000000000005B
:1003030000010101010101010000000000000000E3
:10031300003030000000000000000000806018047E
:10032300006018060100000000E010080810E0005B
:10033300000F102020100F00001010F80000000024
:100343000020203F2020000000700808088870006B
:1003530000302824222130000030088888483000EB
:100363000018202020110E000000C02010F800000B
:1003730000070424243F240000F8088888080800A4
:100383000019212020110E0000E0108888180000B9
:10039300000F112020110E0000380808C83808008B
:1003A3000000003F0000000000708808088870000B
:1003B300001C222121221C0000E010080810E0008C
:1003C3000000312222110F00000000C0C000000015
:1003D300000000303000000000000080000000003A
:1003E3000000806000000000000080402010080032
:1003F30000010204081020004040404040404000FB
:1004030004040404040404000008102040800000D5
:100413000020100804020100007048080808F000DA
:100423000000003036010000C030C828E810E000AA
:100433000718272423140B000000C038E000000035
:10044300203C23020227382008F88888887000009F
:10045300203F202020110E00C03008080808380073
:10046300071820202010080008F808080810E000EA
:10047300203F202020100F0008F88888E80810008B
:10048300203F20202320180008F88888E80810005F
:10049300203F200003000000C03008080838000097
:1004A30007182020221E020008F808000008F80898
:1004B300203F210101213F20000808F8080800001F
:1004C3000020203F2020000000000808F808080052
:1004D300C08080807F00000008F888C028180800CA
:1004E300203F20012638200008F808000000000003
:1004F300203F20202020300008F8F800F8F80800FA
:10050300203F003F003F200008F830C00008F808F3
:10051300203F200007183F00E01008080810E00003
:100523000F10202020100F0008F808080808F0001A
:10053300203F210101010000E01008080810E0003D
:100543000F18242438504F0008F8888888887000D2
:10055300203F2000030C3020007088080808380072
:100563000038202121221C00180808F80808180068
:100573000000203F2000000008F808000008F808E9
:10058300001F202020201F000878880000C838089A
:10059300000007380E010000F80800F80008F80012
:1005A300033C0700073C03000818688080681808AC
:1005B30020302C03032C30200838C800C83808002A
:1005C3000000203F2000000010080808C838080079
:1005D3002038262120201800000000FE020202001D
:1005E3000000007F40404000000C30C000000000CD
:1005F300000000010638C00000020202FE000000F5
:10060300004040407F00000000000402020204009A
:1006130000000000000000000000000000000000D7
:1006230080808080808080800002020400000000BF
:1006330000000000000000000000808080800000B7
:100643000019242222223F2008F8008080000000A5
:10065300003F112020110E00000000808080000068
:10066300000E112020201100000000808088F80077
:10067300000E112020103F200000808080800000A9
:10068300001F222222221300008080F0888888180D
:100693000020203F20200000000080808080800018
:1006A300006B94949493600008F8008080800000AD
:1006B300203F210000203F20008098980000000088
:1006C3000020203F202000000000008098980000B8
:1006D30000C08080807F000008F8000080808000D8
:1006E300203F24022D302000000808F800000000FD
:1006F3000020203F202000008080808080808000B8
:10070300203F20003F20003F808000808080000049
:10071300203F210000203F200000808080800000D7
:10072300001F202020201F00808000808000000008
:1007330080FFA12020110E00000000808080800037
:10074300000E112020A0FF80808080008080800028
:1007530020203F2120000100000080808080800055
:100763000033242424241900008080E080800000CA
:100773000000001F20200000808000000080800017
:10078300001F202020103F20808080000080808078
:1007930000010E3008060100808000800080808008
:1007A3000F300C030C300F0000808000808080002D
:1007B3000020312E0E312000808080000080808058
:1007C30080818E7018060100008080808080800008
:1007D3000021302C2221300000000000807C020226
:1007E30000000000003F404000000000FF00000048
:1007F30000000000FF0000000002027C80000000F7
:100803000040403F00000000000601010202040412
:080813000000000000000000DD
:100AEF00ED6004D2828002C282C284E4FEEEC3941F
:100AFF0008748094805015C280EF30E704D2818053
:100B0F0002C281D280EF25E0FF0E80E1D284D28233
:010B1F0022B3
:100BFB00AC07ED24B0FFE4FD120AEFEC54F0C45443
:0E0C0B000F4410FF120AEFEC540FFF020AEF25
:100A8100E4FCECC3940874809480502CEC24B0FFF7
:100A9100E4FD120AEFE4FF120AEF7F10120AEFE4FD
:100AA100FBEBC3948074809480500A7D01E4FF12B3
:080AB1000AEF0B80EC0C80CA77
:010AB900221A
:1009B000E4FCEB24E0FAEFD3947F7480948040044D
:1009C000E4FF0D0D120BFBE4FCECC3940674809461
:1009D00080502475F006EAA42403F582E5F0340083
:1009E000F583E5822CF582E43583F583E493FF7D7E
:0709F00001120AEF0C80D296
:0109F70022DD
:0A0A40008F108D118B128A13891498
:100A4A00E4F515AB12AA13A9148515827583001251
:100A5A000961FB6021AD11AF101209B074082510AD
:100A6A00F510D39478748094804007E4F51005114A
:060A7A000511051580CDF9
:010A80002253
:080C5F007FB47E49DEFEDFFCDC
:010C6700226A
:1009F800C283120C5FD283E4FD7FE2120AEF7F2CE0
:100A0800120AEF7F2E120AEF7F2F120AEF7F2312AE
:100A18000AEF7F81120AEF7F28120AEF7FA2120ADB
:100A2800EF7FC8120AEF7FA0120AEF7F40120AEF89
:080A38007FAF120AEF020A81F0
:100C1900759170759270759070E4F5BD75BC802200
:100C2900EF4488F5BCE5BC30E4FB53BCEFAFBD2213
:030000000208BC37
:0C08BC00787FE4F6D8FD75812B0209035B
:10094800BB010689828A83E0225002E722BBFE02AD
:09095800E32289828A83E49322E0
:10096100BB010CE58229F582E5833AF583E022504B
:1009710006E92582F8E622BBFE06E92582F8E22295
:0D098100E58229F582E5833AF583E49322AF
:10098E00F8BB010DE58229F582E5833AF583E8F09F
:10099E00225006E92582C8F622BBFE05E92582C84B
:0209AE00F22233
:1008C80002081BE493A3F8E493A34003F68001F223
:1008D80008DFF48029E493A3F85407240CC8C33331
:1008E800C4540F4420C8834004F456800146F6DF00
:1008F800E4800B0102040810204080900C68E47E1C
:10090800019360BCA3FF543F30E509541FFEE493F4
:10091800A360010ECF54C025E060A840B8E493A3BB
:10092800FAE493A3F8E493A3C8C582C8CAC583CAE6
:10093800F0A3C8C582C8CAC583CADFE9DEE780BE9E
:010C6F000084
:00000001FF
