:0706DC00050A010101010103
:10075100438E805389F0758AA0758CFFC28DD28C2F
:05076100D2A9D2AF2275
:10039E0012050E7B007A00790A12071F7F281207BA
:0A03AE00BD12070112057612075177
:1003B8007B007A00790F1206B49200751600850F3B
:1003C80017200004C2908002D290740F2515F8E619
:1003D800FF75F064842430F53CEF75F00A8475F0FD
:1003E8000A84E5F02430F53DE675F06484E5F0759F
:1003F800F00A84E5F02430F53EE51525E0FD7B00A4
:100408007A00793C75450CE4FF1204880515E5155A
:060418006404709CF51560
:02041E008098C4
:03000B000204CC20
:0B04CC00C0E0C0D075D000C006C00723
:1004D700E5172440FFE43516FEC3E5099FE5089EAE
:1004E7005004D2B78002C2B70509E50970020508B2
:0E04F700B4000BE508B40A067508007509008C
:09050500D007D006D0D0D0E032BE
:10068C00E4FEEEC3940874809480501BEF30E704B2
:10069C00D2938002C293EF25E0FFD2CCA295E43333
:0706AC004207C2CC0E80DB07
:0106B3002224
:0D07A300C29212068CAF0512068CD2922273
:0C07B000C29212068CE4FF12068CD2925A
:0107BC00221A
:0605D9008B418A428943B8
:1005DF00C29212068CE4FDEDC395445018AB410551
:1005EF0043E543AA427002054214F9120420FF1298
:0705FF00068C0D80E2D29290
:0106060022D1
:060607008B418A42894389
:10060D00C29212068CE4FDEDC395445017E4FF121F
:10061D00068CAB41AA42A9438D82758300EF12046B
:06062D00660D80E3D2928D
:0106330022A4
:0C07BD00AD07C2CD7F251207A3D2CD22CC
:10050E00C2CCD292C2CDD294C2CD7D037F2312072C
:10051E00A37D067F261207A37D017F211207A37FED
:10052E00221207A37D067F311207A37D1F7F24129F
:05053E0007A3D2CD224D
:10071F00C2CD7544057F2A1205D97D0F7F201207A0
:0B072F00A37DFF7F271207A3D2CD227D
:1006B4002094237F071207B0AC07AD047F271207ED
:1006C400A3EC30E6117544067F611206077DFF7FB7
:0706D400E21207A3D322C3C9
:0106DB0022FC
:10000E000000000000000000002F000000000700AC
:10001E00070000147F147F1400242A7F2A12006226
:10002E0064081323003649552250000005030000D2
:10003E0000001C224100000041221C000014083E5A
:10004E0008140008083E0808000000A06000000820
:10005E000808080800006060000000201008040274
:10006E00003E5149453E0000427F40000042615132
:10007E004946002141454B31001814127F100027CC
:10008E0045454539003C4A4949300001710905038F
:10009E0000364949493600064949291E00003636C0
:1000AE000000000056360000000814224100001423
:1000BE001414141400004122140800020151090600
:1000CE0000324959513E007C1211127C007F494981
:1000DE004936003E41414122007F4141221C007FB2
:1000EE0049494941007F09090901003E4149497AC0
:1000FE00007F0808087F0000417F4100002040413A
:10010E003F01007F08142241007F40404040007FA5
:10011E00020C027F007F0408107F003E4141413EE9
:10012E00007F09090906003E4151215E007F091931
:10013E0029460046494949310001017F0101003F2E
:10014E004040403F001F2040201F003F4038403FAE
:10015E000063140814630007087008070061514912
:10016E00454300007F41410000552A552A550000A5
:10017E0041417F0000040201020400404040404023
:10018E00000001020400002054545478007F4844BB
:10019E00443800384444442000384444487F0038F2
:1001AE005454541800087E0901020018A4A4A47C1B
:1001BE00007F080404780000447D400000408084E5
:1001CE007D00007F102844000000417F4000007C2D
:1001DE0004180478007C0804047800384444443839
:1001EE0000FC242424180018242418FC007C080485
:1001FE00040800485454542000043F444020003C5E
:10020E004040207C001C2040201C003C4030403CE4
:10021E00004428102844001CA0A0A07C0044645474
:09022E004C4414141414141400BF
:1006E3001B21AE001040B081FFA1A6A83FC8D300D4
:0D06F300D580D805D9F1DA12D8308D14AFBA
:0907C900D2B3D2B6C2B6C2B3220B
:07000300D2B3C2B6D2B6224F
:0B0777001205AF120782AF041205AF9D
:05078200D2B3C2B32256
:0705A800AC071207C97F78C0
:1005AF00C2B3E4FEEEC3940874809480501BAD0771
:1005BF00530580ED64807004D2B68002C2B6EF2579
:0905CF00E0FFD2B3C2B30E80DBE1
:0105D8002200
:0E0787001205A8120782E4FF12077702000392
:0E0795001205A81207827F40120777020003A8
:10063400EF24B0FFEE33FEE4FDFC12064FE4FDFCB4
:0B064400FFFE12064F7F10E4FDFCFEDD
:10064F00AB07AA06ED4C6003020795AF03120787AD
:01065F002278
:10066000A907ED24B0FFE433FEE4FDFC12064FE9D8
:1006700054F0C4540F7E004410FFE4FDFC12064FFA
:0C068000E9540FFF7E00E4FDFC02064F71
:10073A007F8D12064BE4FDFC7F14FE12064FE4FD8A
:07074A00FC7FAFFE02064F29
:10076600E4FDFC7F8D120645E4FDFC7FAEFE02062D
:010776004F33
:10057600E4F9E9FF7E00C394087480948050221247
:100586000634E4F540C3E540948074809480500EB0
:100596007D017C00E4FFFE12064F054080E70980DE
:0105A600D183
:0105A7002231
:10054300E4F9E9FF7E00C394087480948050231279
:100553000634E4F518C3E518948074809480500F32
:100563007D017C007F017E0012064F051880E6099D
:0205730080D036
:010575002263
:040237008F478D4818
:10023B00E4F54BF9EB24E0F54BD3EF947F7480940A
:10024B00804007E4F54705480548E54A6410707A95
:10025B00AD48AF47120660E4F9E9C3940874809483
:10026B0080502975F010E54BA429F582E435F0F5A3
:10027B0083E5822436F582E5833402F583E493FF2C
:10028B007E007D017C0012064F0980CDE54804FD00
:10029B00AF47120660E4F9E9C39408748094805068
:1002AB006575F010E54BA429F582E435F0F583E58F
:1002BB0082243EF582E5833402F583E493FF7E00CE
:1002CB007D017C0012064F0980CDAD48AF47120669
:1002DB0060E4F9E9C3940674809480502975F006A4
:1002EB00E54BA4240EF582E5F03400F583E5822975
:1002FB00F582E43583F583E493FF7E007D017C007A
:06030B0012064F0980CD2F
:0103110022C9
:0A0488008F408D418B428A43894466
:10049200E4F546AB42AA43A944854682758300121D
:1004A2000439FB602485454AAD41AF4012023774DE
:1004B200082540F540D39478748094804007E4F591
:0904C2004005410541054680CAD0
:0104CB00220E
:10070100E4F9E9C3941B748094805011742129F891
:0D071100E6FF7E00E4FDFC12064F0980E5C6
:01071E0022B8
:03000000020312E6
:0C031200787FE4F6D8FD75814B0203599A
:10042000BB010689828A83E0225002E722BBFE02DA
:09043000E32289828A83E493220D
:10043900BB010CE58229F582E5833AF583E0225078
:1004490006E92582F8E622BBFE06E92582F8E222C2
:0D045900E58229F582E5833AF583E49322DC
:10046600F8BB010DE58229F582E5833AF583E8F0CC
:10047600225006E92582C8F622BBFE05E92582C878
:02048600F22260
:10031E0002039EE493A3F8E493A34003F68001F254
:10032E0008DFF48029E493A3F85407240CC8C333E0
:10033E00C4540F4420C8834004F456800146F6DFAF
:10034E00E4800B01020408102040809006DCE47E5D
:10035E00019360BCA3FF543F30E509541FFEE493A4
:10036E00A360010ECF54C025E060A840B8E493A36B
:10037E00FAE493A3F8E493A3C8C582C8CAC583CA96
:10038E00F0A3C8C582C8CAC583CADFE9DEE780BE4E
:0107000000F8
:00000001FF
