:070D8100052301010101013E
:100AB400120DA6120B72120C447B007A00792312D9
:100AC4000CD87F28120E2475280F7B007A00792811
:100AD400120D047B007A007928E4FDFF120C032038
:100AE400B11330B1FD0528D3E5289419748094809E
:100AF400400375281920B01330B0FD1528C3E5282C
:100B0400940574809480500375280520B2BC30B2DB
:090B1400FD75280F75280F80B152
:100D5900E4FEEEC3940874809480501BEF30E704DE
:100D6900D2918002C291EF25E0FFD297A296E43397
:070D79004207C2970E80DB68
:010D80002250
:0D0E0A00C293120D59AF05120D59D293225B
:060CAA008B328A3389340D
:100CB000C293120D59E4FDEDC395355018AB3205C2
:100CC00034E534AA337002053314F9120BBDFF1258
:070CD0000D590D80E2D293E3
:010CD70022FA
:0C0E1700C293120D59E4FF120D59D29342
:010E230022AC
:0C0E2400AD07C2927F25120E0AD2922266
:100C4400C297D293C292D294C2927D037F23120E92
:100C54000A7D067F26120E0A7D017F21120E0A7F6D
:100C640022120E0A7D067F31120E0A7D1F7F241286
:050C74000E0AD29222DD
:100CD8008B2E8A2F8930C2927535057F30120CAA67
:100CE8007D0E7F20120E0AAB2EAA2FA9307535056E
:0C0CF8007F2A120CAA7DFF7F27020E0A43
:100D0400C2927535067FA0120CAAD2922094FD7F60
:100D140007120E17AC07AD047F27120E0AEC30E55C
:0B0D240002D3227DFF7FE1120E0AC304
:010D2F0022A1
:090E3000D281D280C280C281226D
:070E3900D281C280D28022A9
:0B0DDE00120C80120DE9AF04120C8013
:050DE900D281C281224D
:070C7900AC07120E307F787A
:100C8000C281E4FEEEC3940874809480501BAD07CB
:100C9000530580ED64807004D2808002C280EF250D
:090CA000E0FFD281C2810E80DB6D
:010CA9002228
:0E0DEE00120C79120DE9E4FF120DDE020E392F
:0E0DFC00120C79120DE97F40120DDE020E3945
:100800000000000000000000002F000000000700B2
:10081000070000147F147F1400242A7F2A1200622C
:1008200064081323003649552250000005030000D8
:1008300000001C224100000041221C000014083E60
:1008400008140008083E0808000000A06000000826
:10085000080808080000606000000020100804027A
:10086000003E5149453E0000427F40000042615138
:100870004946002141454B31001814127F100027D2
:1008800045454539003C4A49493000017109050395
:1008900000364949493600064949291E00003636C6
:1008A0000000000056360000000814224100001429
:1008B0001414141400004122140800020151090606
:1008C00000324959513E007C1211127C007F494987
:1008D0004936003E41414122007F4141221C007FB8
:1008E00049494941007F09090901003E4149497AC6
:1008F000007F0808087F0000417F41000020404140
:100900003F01007F08142241007F40404040007FAB
:10091000020C027F007F0408107F003E4141413EEF
:10092000007F09090906003E4151215E007F091937
:1009300029460046494949310001017F0101003F34
:100940004040403F001F2040201F003F4038403FB4
:100950000063140814630007087008070061514918
:10096000454300007F41410000552A552A550000AB
:1009700041417F0000040201020400404040404029
:10098000000001020400002054545478007F4844C1
:10099000443800384444442000384444487F0038F8
:1009A0005454541800087E0901020018A4A4A47C21
:1009B000007F080404780000447D400000408084EB
:1009C0007D00007F102844000000417F4000007C33
:1009D00004180478007C080404780038444444383F
:1009E00000FC242424180018242418FC007C08048B
:1009F000040800485454542000043F444020003C64
:100A00004040207C001C2040201C003C4030403CEA
:100A1000004428102844001CA0A0A07C004464547A
:080A20004C44141414141414C6
:100D88001B08AE001040B081FFA1A6A83FC8D30041
:0D0D9800D580D805D9F1DA12D8308D14AF0E
:050DC80033FEE4FDFC18
:100DCD008E378F38ED4C6003020DFCAF38120DEEEF
:010DDD0022F3
:100D30008F36ED24B0FFE4120DC8E53654F0C454EC
:100D40000F7E004410FFE4FDFC120DCDE536540F7C
:090D5000FF7E00E4FDFC020DCD64
:100B7200E4F52EAF2E7E00C3EF940874809480506B
:100B820039EF24B0FFEE120DC8E4FDFCFFFE120D9A
:100B9200CDE4FDFC7F10FE120DCDE4F52FC3E52F51
:100BA200948074809480500E7D017C00E4FFFE12DC
:0A0BB2000DCD052F80E7052E80B958
:010BBC002216
:100B1D00E4F534F535EB24E0F534EFD3947F7480B0
:100B2D0094804004E4FF0D0D120D30E4F535C3E55E
:100B3D0035940674809480502B75F006E534A4240A
:100B4D0000F582E5F03408F583E5822535F582E47C
:100B5D003583F583E493FF7E007D017C00120DCD7E
:040B6D00053580CA00
:010B71002261
:0A0C03008F2E8D2F8B308A3189323D
:100C0D00E4F533AB30AA31A93285338275830012F6
:100C1D000BD6FB6021AD2FAF2E120B1D7408252EA8
:100C2D00F52ED39478748094804007E4F52E052F2B
:060C3D00052F053380CDF8
:010C4300228E
:100DA600E4F52EC3E52E941B7480948050137408CA
:100DB600252EF8E6FF7E00E4FDFC120DCD052E8003
:010DC600E24A
:010DC7002209
:03000000020A28C9
:0C0A2800787FE4F6D8FD758138020A6F73
:100BBD00BB010689828A83E0225002E722BBFE0236
:090BCD00E32289828A83E4932269
:100BD600BB010CE58229F582E5833AF583E02250D4
:100BE60006E92582F8E622BBFE06E92582F8E2221E
:0D0BF600E58229F582E5833AF583E4932238
:100A3400020AB4E493A3F8E493A34003F68001F21A
:100A440008DFF48029E493A3F85407240CC8C333C3
:100A5400C4540F4420C8834004F456800146F6DF92
:100A6400E4800B0102040810204080900D81E47E94
:100A7400019360BCA3FF543F30E509541FFEE49387
:100A8400A360010ECF54C025E060A840B8E493A34E
:100A9400FAE493A3F8E493A3C8C582C8CAC583CA79
:100AA400F0A3C8C582C8CAC583CADFE9DEE780BE31
:010DA500004D
:00000001FF
